:020000040000FA
:100000000A20483051206F3051206C30512061302F
:100010005120630083160510051185108312851089
:1000200005110510B12030302420B52030302420B7
:100030009E2030302420A62020302420A6204E20D0
:100040004C204A2038200800F0398C0006080F396F
:100050008C04831606088E000F30860583120C0868
:1000600086000515051183160E0886008312080008
:1000700006304F2880304F28C0304F2894304F280A
:10008000D4304F2880384F28C0384F2808304F28A8
:100090000E304F280C304F2801304F2828300510E3
:1000A000532805145B208D0024200D0E2420051CF0
:1000B000B720A32008008C00F13C031D6228EE301D
:1000C0008C006F280C08D13C031D6928EE308C0091
:1000D0006F280C08BA3C031D6F28DF308C000C0819
:1000E0000800103078280130782802307828033052
:1000F0008F00203051208F0B792808009000F039B4
:10010000031D86282030512088289000100E892059
:1001100010080F398F00093C031C91280F08303E4E
:1001200093280F08373E512800000000000000000F
:100130000000000008000000A430A72800004030A4
:10014000A7281F30A72800000E30A72805309100EF
:10015000910BA8280800C830BA286430BA28323079
:10016000BA281430BA280A30BA280530BA28023022
:10017000BA2801309200F93091000000910BBD289F
:10018000920BBB280800C830CE286430CE2832300D
:10019000CE281430CE280A30CE28053093006430A3
:1001A0009200F93091000000910BD328920BD128D6
:0601B000930BCF280800AC
:02400E00F13F80
:00000001FF
